:020000040800F2
:10000000680600206D0100087501000877010008EE
:10001000790100087B0100087D0100080000000054
:100020000000000000000000000000007F01000848
:10003000810100080000000083010008850100081C
:100040008701000887010008870100088701000870
:100050008701000887010008870100088701000860
:100060008701000887010008870100088701000850
:100070008701000887010008870100088701000840
:100080008701000887010008870100088701000830
:100090008701000887010008870100088701000820
:1000A0008701000887010008870100088701000810
:1000B000C10E0008870100088701000887010008B9
:1000C00087010008870100088701000887010008F0
:1000D00087010008870100088701000887010008E0
:1000E00087010008870100088701000800F002F876
:1000F00000F02CF80AA090E8000C82448344AAF196
:100100000107DA4501D100F021F8AFF2090EBAE893
:100110000F0013F0010F18BFFB1A43F0010318473B
:10012000C4100000D4100000002300240025002685
:10013000103A28BF78C1FBD8520728BF30C148BF4A
:100140000B6070471FB51FBD10B510BD00F031F832
:100150001146FFF7F7FF00F0C7FF00F04FF803B4B8
:10016000FFF7F2FF03BC00F057F800000948804792
:1001700009480047FEE7FEE7FEE7FEE7FEE7FEE789
:10018000FEE7FEE7FEE7FEE704480549054A064BA1
:1001900070470000690E0008ED00000868000020AC
:1001A000680600206802002068020020704770473F
:1001B0007047754600F02CF8AE4605006946534678
:1001C00020F00700854618B020B5FFF7DDFFBDE839
:1001D00020404FF000064FF000074FF000084FF0AE
:1001E000000BAC46ACE8C009ACE8C009ACE8C009FB
:1001F000ACE8C00921F007018D46704710B50446F0
:10020000AFF300802046BDE81040FFF7A8BF000014
:10021000004870470000002001491820ABBEFEE7EF
:10022000260002007047000040F61000C4F20100F2
:10023000102101607047000040F61400C4F2010074
:100240001021016070470000B0B582B0102001217C
:1002500000F03CFD0820012100F038FD42F20000D2
:1002600040F60044C1F20300C4F2010401AD019064
:1002700004F58060294600F049F941F20000C1F21E
:10028000034001902046294600F040F920464FF4F3
:10029000805100F09BF902B0B0BD00002DE9F041A3
:1002A00082B040F60044C4F2010420464FF480516D
:1002B00000F08AF9022000F01DF920464FF4805129
:1002C00000F084F90020782100F0F6F8002878D0BA
:1002D0000120782100F0F0F8002877D00020782164
:1002E00000F0EAF8002873D00DF10300441E052544
:1002F00000F0ACF8013D04F8010FF9D19DF80300BE
:100300009DF804109DF805209DF806300F1817443D
:1003100007EB030841EA0027100200B243EA02217A
:100320000A46B0F1FF3F3AA06FF3DF32D8BF514227
:100330000DB200F073FE002D03D539A000F06EFE63
:100340006D4246F2676128B2C6F2666180FB010128
:10035000881000EBD17630B200F024FE41F2E214B6
:10036000C0F60004204600F059FE06EB8600A5EB1F
:10037000400000B200F016FE2AA000F04FFE2AA0B6
:1003800000F04CFE4CF6CD40CCF6CC40A7FB000173
:10039000CD08284600F006FE204600F03FFE05EBA3
:1003A0008500A7EB400000B200F0FCFD21A000F0AA
:1003B00035FE9DF807005FFA88F181420BD01EA040
:1003C00007E041F2C910C0F6000002E003A000E01F
:1003D00009A000F023FE02B0BDE8F0814448543289
:1003E00032206E6F20726573706F6E7365202848BF
:1003F000494748290A0000004448543232206E6FB1
:1004000020737461727420646174610A00000000DA
:1004100054656D70657261747572653A20000000F4
:100420002D0000002A430A0048756D6964697479DB
:100430003A200000250A0000436865636B73756D00
:10044000204552524F52210A0000000070B540F67C
:1004500000440025C4F2010400260EE04FF0804065
:1004600000F042FD2D284FF0000006F1010688BF84
:100470000120082E40EA45051CD00020642100F030
:100480001BF8B8B10120642100F016F890B14FF0CC
:100490008040002100F02AFD20464FF4805100F0FA
:1004A0008DF80028DAD04FF0804000F01DFD79284B
:1004B000F2D3D3E7E8B270BD70B50C4605464FF0F5
:1004C0008040002100F012FD40F60046C4F2010613
:1004D0004FF0804000F008FDA04208D230464FF4B3
:1004E000805100F06BF8A842F2D1012070BD0020CD
:1004F00070BD0000B0B5044600F040FE054600BFE8
:1005000000F03CFE401BA042FAD3B0BD2DE9F04103
:10051000CA7802F00F0CD30644BF8B784CEA030C68
:1005200009880B0621D0056800234FF001084FF021
:100530000F0E002608E000BF282A08BF47610136D9
:10054000082E03F104030FD008FA06F70F42F6D085
:100550000EFA03F425EA04040CFA03F5482A45EAE6
:100560000405E9D10761EAE70560B1F5807F38BF8E
:10057000BDE8F081446800234FF4807E4FF00F08FF
:10058000002607E0282A08BF47610136082E03F13C
:10059000040310D00EFA06F707EA0105BD42F4D1B4
:1005A00008FA03F5AC430CFA03F5482A44EA0504BB
:1005B000E8D10761E9E74460BDE8F0818068084060
:1005C00018BF01207047000041617047016170470A
:1005D0000288002942F4806308BF22F4806303800C
:1005E000704700000288002942F0010308BF22F092
:1005F000010303807047000010B545F20041C4F2CA
:1006000000014FF48004884208BF4FF400142046D4
:10061000012100F04FFB2046002100F04BFB10BDF4
:100620000288002942F4807308BF22F4807303809B
:10063000704700000288002942F4007308BF22F4CA
:10064000007303807047000070B586B00446808850
:100650000D4620F03F0601A800F044FB03994DF63B
:100660008360C4F21B30A1FB000346EA9340A080E4
:10067000208820F0010020802A6848F2A060C0F2A3
:10068000010082424FEA934008D85200B1FBF2F1D8
:100690004FF6FC72114208BF042125E0EB884BF6AF
:1006A000FF76B34204D102EB4202B1FBF2F105E066
:1006B00019235A43B1FBF2F141F480414FF4967291
:1006C000504344F6D352C1F26202A0FB0202084634
:1006D0006FF31F30B0FA80F04009084348F2000180
:1006E000CFF6FF710143900901302084A183208857
:1006F0004FF6F53140F00100208020886A890840DB
:10070000A988084310432080A889298908432081AB
:1007100006B070BD008AC0B27047000041F001030E
:10072000002A08BF01F0FE03038270470182704770
:1007300010B586B00820012100F0C8FA4FF400106F
:10074000012100F0ABFAC02045F20044C1F603409D
:10075000C4F20004059004F5384005A9FFF7D6FE61
:100760002046FFF749FF0020CBF6FF7002904FF0C4
:10077000806003904FF48040ADF8100048F2A06014
:10078000C0F20100019001A92046FFF75DFF20465D
:100790000121FFF727FF06B010BD000010B582B0A1
:1007A00000246B2000218DF8074000F059F940B378
:1007B0001920072100F054F9F0B11A20032100F0AC
:1007C0004FF9D8B11B200021002400F049F9C0B135
:1007D0001C200021002400F043F990B10DF1070125
:1007E0007520012200F0AEF850B19DF8070068387E
:1007F000B0FA80F0440904E0002402E0002400E0A4
:100800000024204602B010BD10B584B0684600F048
:1008100061F820A000F002FCBDF9000000F0C2FB6E
:100820001EA000F0FBFBBDF9020000F0BBFB1DA009
:1008300000F0F4FBBDF9040000F0B4FB41F2C61473
:10084000C0F60004204600F0E9FB18A000F0E6FB2B
:10085000BDF9060000F0A6FB16A000F0DFFBBDF915
:10086000080000F09FFB15A000F0D8FBBDF90A00BE
:1008700000F098FB204600F0D1FB12A000F0CEFB68
:10088000BDF90C0000F08EFB10A000F0C7FB04B017
:1008900010BD00BF41583A200000000020204159FF
:1008A0003A2000002020415A3A20000047583A20C0
:1008B00000000000202047593A2000002020475A1D
:1008C0003A20000054454D503A2000000D0A0D0A10
:1008D00000000000002804BF0020704710B584B05D
:1008E00004460DF102013B200E2200F02BF828B344
:1008F000BDF80200BDF8041000BA000C208008BA50
:10090000BDF80610000C608008BABDF80810000C95
:10091000A08008BABDF80A10000CA08108BABDF882
:100920000C10000CE08008BABDF80E10000C2081FD
:1009300008BA000C6081012004B010BD002004B092
:1009400010BD00002DE9F041002900F08680164618
:10095000002A00F0828045F20048C4F200080C46EC
:10096000054640460121FFF75BFE012000F0AAFB8F
:10097000002872D0B8F814004046D0210022002789
:10098000FFF7CCFE022000F09DFB002862D0B8F8F3
:100990001400B8F8180040462946FFF7C7FE80202B
:1009A00000F090FB002858D040460121FFF738FEA8
:1009B000012000F087FB00284FD0B8F81400404613
:1009C000D1210122FFF7AAFE022000F07BFB0028C4
:1009D00043D0012E1CD1404600210027FFF7F8FD2F
:1009E000B8F81400B8F8180040460121FFF722FEBD
:1009F000402000F067FB68B34046FFF78BFE207095
:100A0000404601210127FFF7E3FD3846BDE8F081AC
:100A1000B8F81400B8F8180040460121FFF7D8FDD7
:100A2000012E07D140460021FFF7D2FD40460121AB
:100A3000FFF700FE402000F045FB70B14046FFF795
:100A400069FE013E04F8010BEAD14046012101276D
:100A5000FFF7BEFD3846BDE8F0810020BDE8F0811B
:100A6000F0B581B045F20044C4F200040D460646DC
:100A700020460121FFF7D4FD012000F023FB10B335
:100A8000A08A2046D02100220027FFF747FE02203F
:100A900000F018FBE0B1A08A208B20463146FFF71A
:100AA00045FE802000F00EFB78B120462946FFF776
:100AB0003DFE042000F006FB48B12046012101273D
:100AC000FFF7B8FD04E0002702E0002700E0002760
:100AD000384601B0F0BD000010B584B004460DF1F9
:100AE000020000F051FBBDF80200BDF8041000BA8E
:100AF000000C208008BABDF80610000C608008BA0F
:100B0000BDF80810000CA08008BABDF80A10000C4F
:100B1000E08008BABDF80C10000C208108BABDF8BE
:100B20000E10000C608108BA010C0020A18104B0F5
:100B300010BD000010B584B06846FFF7CDFF20A0BF
:100B400000F06CFABDF9000000F02CFA1EA000F0D5
:100B500065FABDF9020000F025FA1DA000F05EFA6A
:100B6000BDF9040000F01EFA41F2C614C0F60004FC
:100B7000204600F053FA18A000F050FABDF9080022
:100B800000F010FA16A000F049FABDF90A0000F0D2
:100B900009FA15A000F042FABDF90C0000F002FAC3
:100BA000204600F03BFA12A000F038FABDF906002A
:100BB00000F0F8F910A000F031FA04B010BD00BF49
:100BC00041583A2000000000202041593A200000FE
:100BD0002020415A3A20000047583A2000000000E7
:100BE000202047593A2000002020475A3A20000090
:100BF00054454D503A2000000D0A0D0A0000000037
:100C000010B541F21800C4F20200016841F2050279
:100C1000114340F600040160C4F20104206820F48E
:100C200070202060206840F440302060FFF7FCFA1C
:100C30002068002120F470002060206840F430001B
:100C40002060206820F070402060206840F0304034
:100C50002060206820F070602060206840F0806094
:100C6000206043F20000C4F201000180018841F0DD
:100C700004010180018841F440710180018841F044
:100C800028010180018841F003010180018841F0C1
:100C9000400101800A20FFF72DFC10BD002941F220
:100CA0001C01C4F202010A680CBF22EA00001043D2
:100CB00008607047002941F21001C4F202010A687D
:100CC0000CBF22EA0000104308607047002941F27F
:100CD0001801C4F202010A680CBF22EA00001043A6
:100CE0000860704710B541F20404C4F2020422689F
:100CF00002F00C02082A41F20022C0F27A021CD152
:100D00002368D4F800C0C3F3834E5FEACC330EF1FE
:100D1000020C06D440F60012C0F23D020CFB02F2B7
:100D20000BE023689B0302D40CFB02F205E040F6C3
:100D30000012C0F23D020CFB02F20260226841F296
:100D4000B613C2F30312C0F600039A5C0168D140E7
:100D500041602268C2F302229A5C21FA02F28260A8
:100D60002268C2F3C2229A5C41F2B213D140C16040
:100D70002268C0F60003C2F381329A5CB1FBF2F143
:100D8000016110BD43F20801C4F201010A88920713
:100D9000FCD508710888C007FCD0087970470000AE
:100DA00080B500F001F880BD82B041F2040000215E
:100DB000C4F202000191009150F8041C41F480310A
:100DC00040F8041C50F8041C01F400310091019912
:100DD00001310191009919B90199B1F5A06FF1D1D3
:100DE00050F8041C890354BF00210121009100998F
:100DF000012936D142F20001C4F202010A6842F030
:100E000010020A600A6822F007020A600A6842F0CB
:100E100002020A600168016001680160016841F432
:100E200080610160016821F47C110160016841F476
:100E3000E811016050F8041C41F0807140F8041C76
:100E400050F8041C8901FBD5016821F00301016001
:100E5000016841F002010160016801F00C010829FC
:100E6000FAD102B07047000080B541F20000C4F230
:100E700002000168002241F0010101604168CFF6E3
:100E8000FF021140416001684FF6FF72CFF6F66233
:100E900011400160016821F480210160416821F462
:100EA000FE0141604FF41F018160FFF779FF4EF6AC
:100EB0000850CEF200004FF00061016080BD0000DC
:100EC0001020C4F200000188C90708BF70470188DC
:100ED00021F00101018040F26000C2F200000168CF
:100EE0000131016070470000808C70478184704739
:100EF00080B541F21C00C4F20200016841F001011A
:100F000001600C20C4F200004721818340F2E731E8
:100F10000184018841F0010101804FF08040018887
:100F200041F00101018000F093F800F089F880BDE4
:100F300041F21801C4F202010A6844F204031A43A0
:100F40000A6040F60401C4F201010A6822F0F002CE
:100F50000A600A6842F0B0020A600A6822F470620D
:100F60000A600A6842F480620A604AF20021C0F214
:100F70004A41B1FBF0F043F60C01C4F2010121F843
:100F8000040C088842F22C021043088070470000CD
:100F900043F60001C4F201010A881206FCD58880DC
:100FA0007047000070B584B00646B0F1FF3F2ADDFF
:100FB00030042ED046F267610022C6F266610DF160
:100FC000060000BF33B283FB0135AB1003EBD574D1
:100FD00004EB8403A6EB430303F13006531CD2B2A7
:100FE0008654220426461A46ECD1190609D0DCB2F2
:100FF000451E00BF285D661EFFF7CAFF012C344660
:10100000F8DC04B070BD2D20FFF7C2FF764230043B
:10101000D0D13020FFF7BCFF04B070BD01780029AB
:1010200008BF704743F60002C4F2010213881B0692
:10103000FCD5C9B2918010F8011F0029F6D1704784
:101040004EF20010CEF200004FF080510160704768
:101050004EF21C40CEF200001021017070470000DB
:1010600010B586B04FF400100121FFF717FE0820DD
:101070000121FFF72BFEC02045F20044C1F60340DA
:10108000C4F20004059004F5384005A9FFF73EFAC4
:101090000020CBF6FF7002904FF0806003904FF479
:1010A0008040ADF8100048F2A060C0F2010001904D
:1010B00001A92046FFF7C8FA20460121FFF792FA5E
:1010C00006B010BD41F29F5145F21442CFF6FF71B8
:1010D000C4F20002013124BF0020704713680342AC
:1010E0001CBF01207047F5E7B0B54FF41650FFF76D
:1010F0001FFFFFF7FDFEFFF7A7F8FFF7B1FFFFF7B0
:101100007FFDFFF715FBFFF749FBD8B141F20C0457
:101110000FA0C4F20104FFF781FF0025FFF7BEF81E
:10112000FFF772FBFFF706FD206880F40050206097
:101130004FF47A70FFF7DEF9642D05F10105EDD368
:101140000020B0BD08A0FFF769FF00BFFEE700BFA9
:10115000416C6C2073656E736F7220696E697420C8
:101160006F6B0D0A000000004D50553630353020B1
:10117000696E6974204641494C0D0A0040F26000D6
:10118000C2F2000000687047B0B50446FFF754F89B
:10119000BB20FFF7F7FD4FF0FF3500BFFF20FFF743
:1011A000F1FD611901350D2D4870F7D1FFF73CF8BD
:1011B000B0BD0204060800000000010203040102A1
:1011C0000304060708090D0A004448543232206E11
:1011D0006F20726573706F6E736520284C4F5729AE
:1011E0000A002E00F411000800000020680600002C
:0411F00028010008CA
:04000005080000ED02
:00000001FF
