:020000040800F2
:10000000680600206D0100087501000877010008EE
:10001000790100087B0100087D0100080000000054
:100020000000000000000000000000007F01000848
:10003000810100080000000083010008850100081C
:100040008701000887010008870100088701000870
:100050008701000887010008870100088701000860
:100060008701000887010008870100088701000850
:100070008701000887010008870100088701000840
:100080008701000887010008870100088701000830
:100090008701000887010008870100088701000820
:1000A0008701000887010008870100088701000810
:1000B000F906000887010008870100088701000889
:1000C00087010008870100088701000887010008F0
:1000D00087010008870100088701000887010008E0
:1000E00087010008870100088701000800F002F876
:1000F00000F02CF80AA090E8000C82448344AAF196
:100100000107DA4501D100F021F8AFF2090EBAE893
:100110000F0013F0010F18BFFB1A43F0010318473B
:10012000E0070000F007000000230024002500265F
:10013000103A28BF78C1FBD8520728BF30C148BF4A
:100140000B6070471FB51FBD10B510BD00F031F832
:100150001146FFF7F7FF00F09FFB00F04FF803B4E4
:10016000FFF7F2FF03BC00F057F800000948804792
:1001700009480047FEE7FEE7FEE7FEE7FEE7FEE789
:10018000FEE7FEE7FEE7FEE704480549054A064BA1
:1001900070470000A1060008ED000008680000207C
:1001A000680600206802002068020020704770473F
:1001B0007047754600F02CF8AE4605006946534678
:1001C00020F00700854618B020B5FFF7DDFFBDE839
:1001D00020404FF000064FF000074FF000084FF0AE
:1001E000000BAC46ACE8C009ACE8C009ACE8C009FB
:1001F000ACE8C00921F007018D46704710B50446F0
:10020000AFF300802046BDE81040FFF7A8BF000014
:10021000004870470000002001491820ABBEFEE7EF
:100220002600020070470000B0B582B01020012106
:1002300000F0C6F90820012100F0C2F942F20000E6
:1002400040F60044C1F20300C4F2010401AD019084
:1002500004F58060294600F051F941F20000C1F236
:10026000034001902046294600F048F920464FF40B
:10027000805100F0A3F902B0B0BD00002DE9F041BB
:1002800082B040F60044C4F2010420464FF480518D
:1002900000F092F9022000F025F920464FF4805139
:1002A00000F08CF90020782100F0FEF8002800F022
:1002B00080800120782100F0F7F800287ED000200F
:1002C000782100F0F1F800287AD00DF10300441EE7
:1002D000052500BF00F0B2F8013D04F8010FF9D187
:1002E0009DF803009DF804109DF805209DF8063048
:1002F0000F18174407EB030841EA0027100200B269
:1003000043EA02210A46B0F1FF3F3DA06FF3DF321E
:10031000D8BF51420DB200F09DFA002D03D53CA08C
:1003200000F098FA6D4246F2676128B2C6F2666143
:1003300080FB0101881000EBD17630B200F04EFA5C
:1003400040F6FD04C0F60004204600F083FA06EBF8
:100350008600A5EB400000EB8000400000B200F0FA
:100360003DFA2CA000F076FA2BA000F073FA4CF6C0
:10037000CD40CCF6CC40A7FB0001CD08284600F0CC
:100380002DFA204600F066FA05EB8500A7EB400049
:1003900000EB8000400000B200F020FA21A000F045
:1003A00059FA9DF807005FFA88F181420BD01EA030
:1003B00007E040F6E400C0F6000002E003A000E021
:1003C00009A000F047FA02B0BDE8F0814448543279
:1003D00032206E6F20726573706F6E7365202848CF
:1003E000494748290A0000004448543232206E6FC1
:1003F00020737461727420646174610A00000000EB
:1004000054656D70657261747572653A2000000004
:100410002D0000002A430A0048756D6964697479EB
:100420003A200000250A0000436865636B73756D10
:10043000204552524F52210A0000000070B540F68C
:1004400000440025C4F2010400260EE04FF0804075
:1004500000F066F92D284FF0000006F1010688BF74
:100460000120082E40EA45051CD00020642100F040
:100470001BF8B8B10120642100F016F890B14FF0DC
:100480008040002100F04EF920464FF4805100F0EA
:100490008DF80028DAD04FF0804000F041F979283B
:1004A000F2D3D3E7E8B270BD70B50C4605464FF005
:1004B0008040002100F036F940F60046C4F2010603
:1004C0004FF0804000F02CF9A04208D230464FF4A3
:1004D000805100F06BF8A842F2D1012070BD0020DD
:1004E00070BD0000B0B5044600F0F6F9054600BF47
:1004F00000F0F2F9401BA042FAD3B0BD2DE9F04163
:10050000CA7802F00F0CD30644BF8B784CEA030C78
:1005100009880B0621D0056800234FF001084FF031
:100520000F0E002608E000BF282A08BF47610136E9
:10053000082E03F104030FD008FA06F70F42F6D095
:100540000EFA03F425EA04040CFA03F5482A45EAF6
:100550000405E9D10761EAE70560B1F5807F38BF9E
:10056000BDE8F081446800234FF4807E4FF00F080F
:10057000002607E0282A08BF47610136082E03F14C
:10058000040310D00EFA06F707EA0105BD42F4D1C4
:1005900008FA03F5AC430CFA03F5482A44EA0504CB
:1005A000E8D10761E9E74460BDE8F0818068084070
:1005B00018BF01207047000041617047016170471A
:1005C000002941F21801C4F202010A680CBF22EAB4
:1005D000000010430860704780B500F001F880BD4E
:1005E00082B041F204000021C4F2020001910091A6
:1005F00050F8041C41F4803140F8041C50F8041CED
:1006000001F400310091019901310191009919B96A
:100610000199B1F5A06FF1D150F8041C890354BFC2
:100620000021012100910099012936D142F20001F7
:10063000C4F202010A6842F010020A600A6822F05D
:1006400007020A600A6842F002020A60016801605B
:1006500001680160016841F480610160016821F472
:100660007C110160016841F4E811016050F8041C3C
:1006700041F0807140F8041C50F8041C8901FBD53E
:10068000016821F003010160016841F0020101608D
:10069000016801F00C010829FAD102B0704700008E
:1006A00080B541F20000C4F202000168002241F06E
:1006B000010101604168CFF6FF021140416001680D
:1006C0004FF6FF72CFF6F66211400160016821F427
:1006D00080210160416821F4FE0141604FF41F0157
:1006E0008160FFF779FF4EF60850CEF200004FF020
:1006F0000061016080BD00001020C4F2000001888C
:10070000C90708BF7047018821F00101018040F24C
:100710006000C2F200000168013101607047000012
:10072000808C70478184704780B541F21C00C4F210
:100730000200016841F0010101600C20C4F20000D8
:100740004721818340F2E7310184018841F00101B2
:1007500001804FF08040018841F00101018000F0EC
:1007600093F800F089F880BD41F21801C4F202014B
:100770000A6844F204031A430A6040F60401C4F212
:1007800001010A6822F0F0020A600A6842F0B00231
:100790000A600A6822F470620A600A6842F48062A1
:1007A0000A604AF20021C0F24A41B1FBF0F043F680
:1007B0000C01C4F2010121F8040C088842F22C0259
:1007C000104308807047000043F60001C4F20101A5
:1007D0000A881206FCD588807047000070B584B086
:1007E0000646B0F1FF3F2ADD30042ED046F26761A5
:1007F0000022C6F266610DF1060000BF33B283FB32
:100800000135AB1003EBD57404EB8403A6EB430373
:1008100003F13006531CD2B28654220426461A46EF
:10082000ECD1190609D0DCB2451E00BF285D661E5A
:10083000FFF7CAFF012C3446F8DC04B070BD2D2050
:10084000FFF7C2FF76423004D0D13020FFF7BCFF63
:1008500004B070BD0178002908BF704743F600025C
:10086000C4F2010213881B06FCD5C9B2918010F8AE
:10087000011F0029F6D170474EF20010CEF20000A1
:100880004FF08051016070474EF21C40CEF20000E4
:10089000102101707047000041F20C054FF4165012
:1008A000C4F20105FFF760FFFFF73EFFFFF7BCFC56
:1008B00007A400BFFFF7E2FC2046FFF7CBFF286844
:1008C00080F4005028604FF47A70FFF70BFEF1E7D8
:1008D0006162630A0000000040F26000C2F20000A2
:1008E000006870474448543232206E6F207265733E
:1008F000706F6E736520284C4F57290A002E000038
:100900001009000800000020680600002801000807
:04000005080000ED02
:00000001FF
